{
  "contractName": "Storage",
  "abi": [
    {
      "constant": true,
      "inputs": [],
      "name": "fileCount",
      "outputs": [
        {
          "name": "",
          "type": "uint256"
        }
      ],
      "payable": false,
      "stateMutability": "view",
      "type": "function",
      "signature": "0x43953519"
    },
    {
      "constant": true,
      "inputs": [
        {
          "name": "",
          "type": "uint256"
        }
      ],
      "name": "Files",
      "outputs": [
        {
          "name": "fileHash",
          "type": "string"
        }
      ],
      "payable": false,
      "stateMutability": "view",
      "type": "function",
      "signature": "0x47d52ef2"
    },
    {
      "constant": false,
      "inputs": [
        {
          "name": "_fileHash",
          "type": "string"
        }
      ],
      "name": "set",
      "outputs": [],
      "payable": false,
      "stateMutability": "nonpayable",
      "type": "function",
      "signature": "0x4ed3885e"
    },
    {
      "constant": true,
      "inputs": [
        {
          "name": "_count",
          "type": "uint256"
        }
      ],
      "name": "getFileHash",
      "outputs": [
        {
          "name": "",
          "type": "string"
        }
      ],
      "payable": false,
      "stateMutability": "view",
      "type": "function",
      "signature": "0xeb131135"
    },
    {
      "constant": true,
      "inputs": [],
      "name": "getCount",
      "outputs": [
        {
          "name": "",
          "type": "uint256"
        }
      ],
      "payable": false,
      "stateMutability": "view",
      "type": "function",
      "signature": "0xa87d942c"
    }
  ],
  "bytecode": "0x60806040526000805534801561001457600080fd5b5061059e806100246000396000f3fe60806040526004361061006d576000357c0100000000000000000000000000000000000000000000000000000000900463ffffffff168063439535191461007257806347d52ef21461009d5780634ed3885e14610151578063a87d942c14610219578063eb13113514610244575b600080fd5b34801561007e57600080fd5b506100876102f8565b6040518082815260200191505060405180910390f35b3480156100a957600080fd5b506100d6600480360360208110156100c057600080fd5b81019080803590602001909291905050506102fe565b6040518080602001828103825283818151815260200191508051906020019080838360005b838110156101165780820151818401526020810190506100fb565b50505050905090810190601f1680156101435780820380516001836020036101000a031916815260200191505b509250505060405180910390f35b34801561015d57600080fd5b506102176004803603602081101561017457600080fd5b810190808035906020019064010000000081111561019157600080fd5b8201836020820111156101a357600080fd5b803590602001918460018302840111640100000000831117156101c557600080fd5b91908080601f016020809104026020016040519081016040528093929190818152602001838380828437600081840152601f19601f8201169050808301925050505050505091929192905050506103b4565b005b34801561022557600080fd5b5061022e61040c565b6040518082815260200191505060405180910390f35b34801561025057600080fd5b5061027d6004803603602081101561026757600080fd5b8101908080359060200190929190505050610415565b6040518080602001828103825283818151815260200191508051906020019080838360005b838110156102bd5780820151818401526020810190506102a2565b50505050905090810190601f1680156102ea5780820380516001836020036101000a031916815260200191505b509250505060405180910390f35b60005481565b6001602052806000526040600020600091509050806000018054600181600116156101000203166002900480601f0160208091040260200160405190810160405280929190818152602001828054600181600116156101000203166002900480156103aa5780601f1061037f576101008083540402835291602001916103aa565b820191906000526020600020905b81548152906001019060200180831161038d57829003601f168201915b5050505050905081565b600080815480929190600101919050555060206040519081016040528082815250600160008054815260200190815260200160002060008201518160000190805190602001906104059291906104cd565b5090505050565b60008054905090565b6060600160008381526020019081526020016000206000018054600181600116156101000203166002900480601f0160208091040260200160405190810160405280929190818152602001828054600181600116156101000203166002900480156104c15780601f10610496576101008083540402835291602001916104c1565b820191906000526020600020905b8154815290600101906020018083116104a457829003601f168201915b50505050509050919050565b828054600181600116156101000203166002900490600052602060002090601f016020900481019282601f1061050e57805160ff191683800117855561053c565b8280016001018555821561053c579182015b8281111561053b578251825591602001919060010190610520565b5b509050610549919061054d565b5090565b61056f91905b8082111561056b576000816000905550600101610553565b5090565b9056fea165627a7a72305820d4d146585d580dd7a515a40055ba8ce9a1f2c1a05c52dbb20f5021f335c74d780029",
  "source": "pragma solidity 0.5.0;\r\n\r\ncontract Storage {\r\n    struct FileHash {\r\n        string fileHash;\r\n    }\r\n    uint256 public fileCount = 0;\r\n    mapping(uint256 => FileHash) public Files;\r\n\r\n    function set(string memory _fileHash) public {\r\n        fileCount++;\r\n        Files[fileCount] = FileHash(_fileHash);\r\n    }\r\n\r\n    function getFileHash(uint256 _count) public view returns (string memory) {\r\n        return Files[_count].fileHash;\r\n    }\r\n\r\n    function getCount() public view returns (uint256) {\r\n        return fileCount;\r\n    }\r\n}\r\n",
  "sourcePath": "C:/Users/bhara/Desktop/dstorage - Copy/src/contracts/Storage.sol",
  "compiler": {
    "name": "solc",
    "version": "0.5.0+commit.1d4f565a.Emscripten.clang"
  },
  "schemaVersion": "3.0.2",
  "updatedAt": "2022-07-24T11:07:15.331Z",
  "devdoc": {
    "methods": {}
  },
  "userdoc": {
    "methods": {}
  }
}