{
  "contractName": "Storage",
  "abi": [
    {
      "constant": true,
      "inputs": [],
      "name": "fileCount",
      "outputs": [
        {
          "name": "",
          "type": "uint256"
        }
      ],
      "payable": false,
      "stateMutability": "view",
      "type": "function",
      "signature": "0x43953519"
    },
    {
      "constant": true,
      "inputs": [
        {
          "name": "",
          "type": "uint256"
        }
      ],
      "name": "Files",
      "outputs": [
        {
          "name": "fileHash",
          "type": "string"
        },
        {
          "name": "fileName",
          "type": "string"
        }
      ],
      "payable": false,
      "stateMutability": "view",
      "type": "function",
      "signature": "0x47d52ef2"
    },
    {
      "constant": false,
      "inputs": [
        {
          "name": "_fileHash",
          "type": "string"
        },
        {
          "name": "_fileName",
          "type": "string"
        }
      ],
      "name": "set",
      "outputs": [],
      "payable": false,
      "stateMutability": "nonpayable",
      "type": "function",
      "signature": "0xe942b516"
    },
    {
      "constant": true,
      "inputs": [
        {
          "name": "_count",
          "type": "uint256"
        }
      ],
      "name": "getFileHash",
      "outputs": [
        {
          "name": "",
          "type": "string"
        }
      ],
      "payable": false,
      "stateMutability": "view",
      "type": "function",
      "signature": "0xeb131135"
    },
    {
      "constant": true,
      "inputs": [
        {
          "name": "_count",
          "type": "uint256"
        }
      ],
      "name": "getFileName",
      "outputs": [
        {
          "name": "",
          "type": "string"
        }
      ],
      "payable": false,
      "stateMutability": "view",
      "type": "function",
      "signature": "0xed7c238d"
    },
    {
      "constant": true,
      "inputs": [],
      "name": "getCount",
      "outputs": [
        {
          "name": "",
          "type": "uint256"
        }
      ],
      "payable": false,
      "stateMutability": "view",
      "type": "function",
      "signature": "0xa87d942c"
    }
  ],
  "bytecode": "0x60806040526000805534801561001457600080fd5b506108d9806100246000396000f3fe608060405260043610610078576000357c0100000000000000000000000000000000000000000000000000000000900463ffffffff168063439535191461007d57806347d52ef2146100a8578063a87d942c146101c8578063e942b516146101f3578063eb13113514610352578063ed7c238d14610406575b600080fd5b34801561008957600080fd5b506100926104ba565b6040518082815260200191505060405180910390f35b3480156100b457600080fd5b506100e1600480360360208110156100cb57600080fd5b81019080803590602001909291905050506104c0565b604051808060200180602001838103835285818151815260200191508051906020019080838360005b8381101561012557808201518184015260208101905061010a565b50505050905090810190601f1680156101525780820380516001836020036101000a031916815260200191505b50838103825284818151815260200191508051906020019080838360005b8381101561018b578082015181840152602081019050610170565b50505050905090810190601f1680156101b85780820380516001836020036101000a031916815260200191505b5094505050505060405180910390f35b3480156101d457600080fd5b506101dd610614565b6040518082815260200191505060405180910390f35b3480156101ff57600080fd5b506103506004803603604081101561021657600080fd5b810190808035906020019064010000000081111561023357600080fd5b82018360208201111561024557600080fd5b8035906020019184600183028401116401000000008311171561026757600080fd5b91908080601f016020809104026020016040519081016040528093929190818152602001838380828437600081840152601f19601f820116905080830192505050505050509192919290803590602001906401000000008111156102ca57600080fd5b8201836020820111156102dc57600080fd5b803590602001918460018302840111640100000000831117156102fe57600080fd5b91908080601f016020809104026020016040519081016040528093929190818152602001838380828437600081840152601f19601f82011690508083019250505050505050919291929050505061061d565b005b34801561035e57600080fd5b5061038b6004803603602081101561037557600080fd5b8101908080359060200190929190505050610698565b6040518080602001828103825283818151815260200191508051906020019080838360005b838110156103cb5780820151818401526020810190506103b0565b50505050905090810190601f1680156103f85780820380516001836020036101000a031916815260200191505b509250505060405180910390f35b34801561041257600080fd5b5061043f6004803603602081101561042957600080fd5b8101908080359060200190929190505050610750565b6040518080602001828103825283818151815260200191508051906020019080838360005b8381101561047f578082015181840152602081019050610464565b50505050905090810190601f1680156104ac5780820380516001836020036101000a031916815260200191505b509250505060405180910390f35b60005481565b6001602052806000526040600020600091509050806000018054600181600116156101000203166002900480601f01602080910402602001604051908101604052809291908181526020018280546001816001161561010002031660029004801561056c5780601f106105415761010080835404028352916020019161056c565b820191906000526020600020905b81548152906001019060200180831161054f57829003601f168201915b505050505090806001018054600181600116156101000203166002900480601f01602080910402602001604051908101604052809291908181526020018280546001816001161561010002031660029004801561060a5780601f106105df5761010080835404028352916020019161060a565b820191906000526020600020905b8154815290600101906020018083116105ed57829003601f168201915b5050505050905082565b60008054905090565b600080815480929190600101919050555060408051908101604052808381526020018281525060016000805481526020019081526020016000206000820151816000019080519060200190610673929190610808565b506020820151816001019080519060200190610690929190610808565b509050505050565b6060600160008381526020019081526020016000206000018054600181600116156101000203166002900480601f0160208091040260200160405190810160405280929190818152602001828054600181600116156101000203166002900480156107445780601f1061071957610100808354040283529160200191610744565b820191906000526020600020905b81548152906001019060200180831161072757829003601f168201915b50505050509050919050565b6060600160008381526020019081526020016000206001018054600181600116156101000203166002900480601f0160208091040260200160405190810160405280929190818152602001828054600181600116156101000203166002900480156107fc5780601f106107d1576101008083540402835291602001916107fc565b820191906000526020600020905b8154815290600101906020018083116107df57829003601f168201915b50505050509050919050565b828054600181600116156101000203166002900490600052602060002090601f016020900481019282601f1061084957805160ff1916838001178555610877565b82800160010185558215610877579182015b8281111561087657825182559160200191906001019061085b565b5b5090506108849190610888565b5090565b6108aa91905b808211156108a657600081600090555060010161088e565b5090565b9056fea165627a7a7230582044be1d060faf61be2864ab080792768310599ca10ffaf6f8938b628738e829c20029",
  "source": "pragma solidity 0.5.0;\r\n\r\ncontract Storage {\r\n    struct FileHash {\r\n        string fileHash;\r\n        string fileName;\r\n    }\r\n    uint256 public fileCount = 0;\r\n    mapping(uint256 => FileHash) public Files;\r\n\r\n    function set(string memory _fileHash, string memory _fileName) public {\r\n        fileCount++;\r\n        Files[fileCount] = FileHash(_fileHash, _fileName);\r\n    }\r\n\r\n    function getFileHash(uint256 _count) public view returns (string memory) {\r\n        return Files[_count].fileHash;\r\n    }\r\n\r\n    function getFileName(uint256 _count) public view returns (string memory) {\r\n        return Files[_count].fileName;\r\n    }\r\n\r\n    function getCount() public view returns (uint256) {\r\n        return fileCount;\r\n    }\r\n}\r\n",
  "sourcePath": "C:/Users/bhara/Desktop/dstorage - Copy/src/contracts/Storage.sol",
  "compiler": {
    "name": "solc",
    "version": "0.5.0+commit.1d4f565a.Emscripten.clang"
  },
  "schemaVersion": "3.0.2",
  "updatedAt": "2022-07-24T12:18:07.563Z",
  "devdoc": {
    "methods": {}
  },
  "userdoc": {
    "methods": {}
  }
}